:100000000C94B3000C94D4000C94D4000C94D40041
:100010000C94D4000C94CC030C94A1030C94D40045
:100020000C94D4000C94D4000C94D4000C94D40000
:100030000C94D4000C94D4000C94D4000C94D400F0
:100040000C94D4000C94D4000C94D4000C94D400E0
:100050000C94D4000C94D4000C94D4000C94D400D0
:100060000C94D4000C942C080C94D4000C94D40060
:100070000C94D4000C94D4000C94D4000C94D400B0
:100080000C94D4000C94D4000C94D4000C94D400A0
:100090000C94D4000C94D4000C94D4000C94D40090
:1000A0000C94D4000C94D4000C94D4000C94D40080
:1000B0000C94D4000C94D4000C94D4000C94D40070
:1000C0000C94D4000C94D4000C94D4000C94D40060
:1000D0000C94D4000C94D4000C94D4000C94D40050
:1000E0000C94D40007634236B79BD8A71A396856D8
:1000F00018AEBAAB558C1D3CB7CC5763BD6DEDFD4A
:10010000753EF6177231BF000000803F0800000006
:10011000BE922449123EABAAAA2ABECDCCCC4C3EFC
:1001200000000080BEABAAAAAA3E00000000BF00EB
:100130000000803F0000000000084178D3BB4387E7
:10014000D1133D190E3CC3BD4282AD2B3E68EC82FB
:1001500076BED98FE1A93E4C80EFFFBE01C4FF7F80
:100160003F000000000011241FBECFEFD1E2DEBF30
:10017000CDBF00E00CBF13E0A0E0B2E0EEE4F9E296
:1001800000E00BBF02C007900D92A830B107D9F76D
:1001900013E0A8E0B3E001C01D92A832B107E1F777
:1001A0000E94BE0A0C94A5140C940000DF93CF9318
:1001B000CDB7DEB7E1ECF0E01082E0ECF0E01082C9
:1001C000E2ECF0E086E08083E4ECF0E08FE5808311
:1001D000E5ECF0E01082E1ECF0E088E98083CF917B
:1001E000DF910895DF93CF93CDB7DEB7A4E2B0E0FF
:1001F000E4E2F0E0808187608C93A5E2B0E0E5E284
:10020000F0E0808187608C93CF91DF910895DF9338
:10021000CF93CDB7DEB7A1E0B1E0E1E0F1E08081BE
:100220008C608C93A2E0B1E0E2E0F1E08081837F1A
:100230008C93A3E3B0E0E3E3F0E0808184608C93EF
:10024000A4E3B0E0E4E3F0E080818B7F8C93CF9176
:10025000DF910895DF93CF93CDB7DEB7A7E2B0E08B
:10026000E7E2F0E0808188608C93A8E2B0E0E8E209
:10027000F0E08081877F8C93CF91DF910895DF93A9
:10028000CF93CDB7DEB7E0E3F0E01082E1E3F0E03A
:100290001082E7E0F1E01082E8E0F1E01082CF9117
:1002A000DF910895DF93CF93CDB7DEB7A4E2B0E03E
:1002B000E4E2F0E0808180628C93A5E2B0E0E5E2C8
:1002C000F0E0808180628C93CF91DF910895DF937D
:1002D000CF93CDB7DEB7A4E2B0E0E4E2F0E08081F6
:1002E00080648C93A5E2B0E0E5E2F0E08081806478
:1002F0008C93CF91DF910895DF93CF93CDB7DEB785
:10030000A1E2B0E0E1E2F0E080818F608C93A2E2B4
:10031000B0E0E2E2F0E08081807F8C93AAE0B1E07F
:10032000EAE0F1E0808188618C93ABE0B1E0EBE042
:10033000F1E0808188618C93CF91DF910895DF9304
:10034000CF93CDB7DEB7ADE2B0E0EDE2F0E0808173
:100350008F7E8C93AEE2B0E0EEE2F0E080818061CF
:100360008C93CF91DF910895DF93CF93CDB7DEB714
:10037000ADE2B0E0EDE2F0E080818F7D8C93AEE203
:10038000B0E0EEE2F0E0808180628C93CF91DF916B
:100390000895DF93CF93CDB7DEB70E947C010E9412
:1003A0002A010E943F010E94F2000E9407010E9460
:1003B0009F010E94B4010E9452010E946701CF91E7
:1003C000DF910895DF93CF93CDB7DEB7ECE4F0E093
:1003D00083E58083EDE4F0E01082EEE4F0E010824B
:1003E000CF91DF910895DF93CF93CDB7DEB7EAE7E2
:1003F000F0E01082EBE7F0E01082ECE7F0E080E262
:100400008083E0E5F0E080E88083EAE7F0E086E8DA
:100410008083CF91DF910895DF93CF9300D0CDB744
:10042000DEB78B838B8189838B81883020F0EBE76B
:10043000F0E088E080838B8187708B83ECE7F0E0CD
:100440008B8180628083AAE7B0E0EAE7F0E08081F8
:1004500080648C93EAE7F0E08081882F90E08071DF
:1004600090700097B9F3E9E7F0E080818A83AAE70A
:10047000B0E0EAE7F0E0808180618C93EBE7F0E0A8
:1004800010828981893038F48981882321F0E6EC53
:10049000F0E08A8180838A810F900F900F90CF9136
:1004A000DF910895DF93CF93CDB7DEB760970FB696
:1004B000F894DEBF0FBECDBF888B1F86A5E2B0E0EB
:1004C000E5E2F0E080818E7F8C93EEE4F0E08889B5
:1004D0008083EDE4F0E080818823DCF780E090E029
:1004E000A0E8BFE38B879C87AD87BE876B857C8543
:1004F0008D859E8526E636E646E655E40E94A10CEB
:10050000DC01CB018F839887A987BA876F817885B3
:1005100089859A8520E030E040E85FE30E94A70EDD
:1005200088232CF481E090E09E838D833FC06F810F
:10053000788589859A8520E03FEF4FE757E40E9450
:10054000470E18164CF56B857C858D859E8520E0C1
:1005500030E040E251E40E94A10CDC01CB01BC017F
:10056000CD010E94CB0ADC01CB019E838D830FC09D
:1005700080E791E09C838B838B819C810197F1F7CD
:100580009C838B838D819E8101979E838D838D813A
:100590009E81009769F714C06F81788589859A8557
:1005A0000E94CB0ADC01CB019E838D838D819E81CD
:1005B0009A83898389819A810197F1F79A83898344
:1005C000EEE4F0E080E58083EDE4F0E080818823D4
:1005D000DCF7EEE4F0E080818F87A5E2B0E0E5E2B1
:1005E000F0E0808181608C93E6ECF0E08F85808381
:1005F0008F8560960FB6F894DEBF0FBECDBFCF914A
:10060000DF910895DF93CF93CDB7DEB727970FB66D
:10061000F894DEBF0FBECDBF8F838F81882F90E00F
:10062000A0E0B0E0BC01CD010E94890FDC01CB014C
:10063000BC01CD012FEE39EC43E95FE30E942E129D
:10064000DC01CB019C01AD0160E070E080E89FE33C
:100650000E949B0DDC01CB01BC01CD012AE939EFE1
:100660004EE255E40E94A10CDC01CB01BC01CD019E
:1006700020E030E040E251E40E94A10CDC01CB011B
:10068000BC01CD010E94350FDC01CB01AA2797FDEB
:10069000A095BA2FBC01CD010E94D70EDC01CB0181
:1006A0008B839C83AD83BE836B817C818D819E8196
:1006B0000E94350FDC01CB019A83898389819A815D
:1006C00023E08132920720F080E293E09A838983CD
:1006D00089819A8127960FB6F894DEBF0FBECDBFF1
:1006E000CF91DF910895DF93CF93CDB7DEB7F89424
:1006F000AAE6B0E0EAE6F0E0808182608C93ADE3A8
:10070000B0E0EDE3F0E0808180618C937894CF914C
:10071000DF910895DF93CF93CDB7DEB7F894AAE6C3
:10072000B0E0EAE6F0E0808188608C93ADE3B0E071
:10073000EDE3F0E0808180628C937894CF91DF913B
:1007400008951F920F920FB60F9211248F939F93CB
:10075000AF93BF93DF93CF93CDB7DEB780910E03F6
:1007600090910F03A0911003B09111030196A11D68
:10077000B11D80930E0390930F03A0931003B093C9
:100780001103CF91DF91BF91AF919F918F910F9006
:100790000FBE0F901F9018951F920F920FB60F92D9
:1007A00011248F939F93AF93BF93DF93CF93CDB7D4
:1007B000DEB780910A0390910B03A0910C03B091D6
:1007C0000D030196A11DB11D80930A0390930B03A5
:1007D000A0930C03B0930D03CF91DF91BF91AF9124
:1007E0009F918F910F900FBE0F901F901895DF93E0
:1007F000CF93CDB7DEB7E1E8F0E01082E5E8F0E0B6
:100800008CEF8083E4E8F0E081E08083E9E8F0E0C9
:1008100083E08083E8E8F0E08FEF8083EBE8F0E0AE
:1008200083E08083EAE8F0E08FEF8083EDE8F0E09A
:1008300083E08083ECE8F0E08FEF8083E7E8F0E08E
:1008400083E08083E6E8F0E08FEF8083E0E8F0E08B
:100850008BEA8083E2E8F0E01082E1E8F0E08CE0EF
:100860008083CF91DF910895DF93CF93CDB7DEB72B
:10087000E1E2F1E01082E5E2F1E08FEF8083E4E273
:10088000F1E081E08083E9E2F1E01082E8E2F1E06A
:100890008FEF8083EBE2F1E01082EAE2F1E08FEF8C
:1008A0008083EDE2F1E01082ECE2F1E08FEF8083F3
:1008B000E0E2F1E089EA8083E1E2F1E08BE080832D
:1008C000CF91DF910895DF93CF930F920F92CDB721
:1008D000DEB789836A83E8E2F1E089818083EAE216
:1008E000F1E08A818083E6ECF0E010820F900F90B7
:1008F000CF91DF910895DF93CF930F920F92CDB7F1
:10090000DEB78A8319828A818F708A83E2E2F0E0FF
:10091000808189838981807F898399818A81892BDC
:100920008983E2E2F0E0898180830F900F90CF917C
:10093000DF910895DF93CF93CDB7DEB786E00E94B5
:100940007B04CF91DF910895DF93CF93CDB7DEB7CE
:1009500089E00E947B04CF91DF910895DF93CF93CC
:10096000CDB7DEB785E00E947B04CF91DF9108957B
:10097000DF93CF93CDB7DEB78AE00E947B04CF919F
:10098000DF910895DF93CF93CDB7DEB784E00E9467
:100990007B04CF91DF910895DF93CF93CDB7DEB77E
:1009A00082E00E947B04CF91DF910895DF93CF9383
:1009B000CDB7DEB781E00E947B04CF91DF9108952F
:1009C000DF93CF93CDB7DEB788E00E947B04CF9151
:1009D000DF910895DF93CF93CDB7DEB780E00E941B
:1009E0007B04CF91DF910895DF93CF93CDB7DEB72E
:1009F000A4E3B0E0E4E3F0E080818B7F8C93CF91BF
:100A0000DF910895DF93CF93CDB7DEB7A4E3B0E0D5
:100A1000E4E3F0E0808184608C93CF91DF910895CE
:100A2000DF93CF93CDB7DEB7A2E0B1E0E2E0F1E033
:100A300080818B7F8C93CF91DF910895DF93CF934B
:100A4000CDB7DEB7A2E0B1E0E2E0F1E08081846002
:100A50008C93CF91DF910895DF93CF93CDB7DEB71D
:100A6000A2E0B1E0E2E0F1E08081877F8C93E6ECE8
:100A7000F0E01082CF91DF910895DF93CF93CDB74F
:100A8000DEB7A2E0B1E0E2E0F1E0808188608C9323
:100A9000E6ECF0E01082CF91DF910895DF93CF93E1
:100AA000CDB7DEB7A2E0B1E0E2E0F1E08081837F84
:100AB0008C93A4E3B0E0E4E3F0E080818B7F8C933F
:100AC000E6ECF0E01082CF91DF910895DF93CF93B1
:100AD000CDB7DEB7A2E0B1E0E2E0F1E080818C606A
:100AE0008C93A4E3B0E0E4E3F0E0808184608C9335
:100AF000E6ECF0E01082CF91DF910895DF93CF9381
:100B00000F92CDB7DEB71982E6E2F0E080818983EB
:100B1000898188608983E8E2F0E089818083E6EC5E
:100B2000F0E010820F90CF91DF910895DF93CF9383
:100B30000F92CDB7DEB71982E6E2F0E080818983BB
:100B40008981877F8983E8E2F0E089818083E6EC10
:100B5000F0E010820F90CF91DF910895DF93CF9353
:100B6000CDB7DEB72C970FB6F894DEBF0FBECDBF62
:100B70009A87898780E090E0A0E0B0E08D839E8333
:100B8000AF83B88719821A821B821C8289859A8555
:100B9000CC01A0E0B0E0BC01CD010E94890FDC01D6
:100BA000CB01BC01CD0128E431EE42E850E40E94C3
:100BB0009B0DDC01CB018D839E83AF83B8876D8154
:100BC0007E818F8198850E94CB0ADC01CB01CC010C
:100BD000A0E0B0E089839A83AB83BC8310920E03BC
:100BE00010920F03109210031092110310920A0337
:100BF00010920B0310920C0310920D0320910E0320
:100C000030910F0340911003509111031C8689818C
:100C10009A81AB81BC81281739074A075B0710F01E
:100C200081E08C8720910A0330910B0340910C03E3
:100C300050910D031B8689819A81AB81BC81281755
:100C400039074A075B0710F091E09B878C859B85ED
:100C5000892B882399F20E94EA04E6ECF0E01082E6
:100C60002C960FB6F894DEBF0FBECDBFCF91DF91AB
:100C70000895DF93CF93CDB7DEB72A970FB6F894D8
:100C8000DEBF0FBECDBF9A87898780E090E0A0E0ED
:100C9000B0E08D839E83AF83B88719821A821B824E
:100CA0001C8289859A85CC01A0E0B0E0BC01CD0111
:100CB0000E94890FDC01CB01BC01CD0125EE30ED96
:100CC0004AEA50E40E949B0DDC01CB018D839E8398
:100CD000AF83B8876D817E818F8198850E94CB0A12
:100CE000DC01CB0189839A83AB83BC8310920E0312
:100CF00010920F03109210031092110320910E0313
:100D000030910F03409110035091110389819A8112
:100D1000AB81BC8182179307A407B50778F70E94BF
:100D2000EA04E6ECF0E010822A960FB6F894DEBFF3
:100D30000FBECDBFCF91DF910895DF93CF930F9278
:100D40000F92CDB7DEB79A8389830E949A04898176
:100D50009A810E9439060F900F90CF91DF910895EC
:100D6000DF93CF930F920F92CDB7DEB79A8389832B
:100D70000E94A40489819A810E9439060F900F90E5
:100D8000CF91DF910895DF93CF930F920F92CDB75C
:100D9000DEB79A8389830E94AE0489819A810E947A
:100DA000AE050F900F90CF91DF910895DF93CF9311
:100DB0000F920F92CDB7DEB79A8389830E94B80451
:100DC00089819A810E94AE050F900F90CF91DF919B
:100DD0000895DF93CF930F920F92CDB7DEB79A832A
:100DE00089830E94C20489819A81880F991F9A83FE
:100DF000898389819A810E94AE050F900F90CF91CF
:100E0000DF910895DF93CF930F920F92CDB7DEB7A6
:100E10009A8389830E94CC0489819A81880F991FC3
:100E20009A83898389819A810E94AE050F900F90E1
:100E3000CF91DF910895DF93CF930F920F92CDB7AB
:100E4000DEB79A8389830E94D60489819A81880FAC
:100E5000991F9A83898389819A810E94AE050F9098
:100E60000F90CF91DF910895DF93CF930F920F9260
:100E7000CDB7DEB79A8389830E94E00489819A8185
:100E8000880F991F9A83898389819A810E94AE0570
:100E90000F900F90CF91DF9108950F931F93DF93E1
:100EA000CF9300D00F920F92CDB7DEB78D8380E045
:100EB00090E0A0E0B0E089839A83AB83BC838D810E
:100EC000882F90E0A0E0B0E0BC01CD010E94890F26
:100ED000DC01CB01BC01CD012BE734E14EEE5FE339
:100EE0000E949B0DDC01CB01BC01CD0120E030E074
:100EF0004CE052E40E94740CDC01CB0189839A839C
:100F0000AB83BC83E9E8F0E0108208E810E0698177
:100F10007A818B819C810E94CB0ADC01CB01F80194
:100F20008083E6ECF0E010820F900F900F900F900E
:100F30000F90CF91DF911F910F9108950F931F9301
:100F4000DF93CF9300D00F920F92CDB7DEB78D8392
:100F500080E090E0A0E0B0E089839A83AB83BC831B
:100F60008D81882F90E0A0E0B0E0BC01CD010E940F
:100F7000890FDC01CB01BC01CD012BE734E14EEE42
:100F80005FE30E949B0DDC01CB01BC01CD0120E0A1
:100F900030E04CE052E40E94740CDC01CB01898308
:100FA0009A83AB83BC83EBE8F0E010820AE810E0A0
:100FB00069817A818B819C810E94CB0ADC01CB0103
:100FC000F8018083E6ECF0E010820F900F900F9014
:100FD0000F900F90CF91DF911F910F910895DF93A4
:100FE000CF93CDB7DEB7E9E8F0E083E08083E8E8AF
:100FF000F0E08FEF8083E6ECF0E01082CF91DF919C
:101000000895DF93CF93CDB7DEB7EBE8F0E083E050
:101010008083EAE8F0E08FEF8083E6ECF0E0108276
:10102000CF91DF910895DF93CF93CDB7DEB7F894DA
:101030000E94C9010E9473030E948A030E94D60085
:101040000E94F7030E9434040E94F3010E94E2010F
:101050007894CF91DF9108951F920F920FB60F925F
:1010600000905B000F9211242F933F934F935F9357
:101070006F937F938F939F93AF93BF93EF93FF9360
:10108000DF93CF93CDB7DEB7A497DEBFCDBF8091FE
:10109000080390910903E6ECF0E02081FC01EF5D8C
:1010A000FC4F20838091080390910903019690934F
:1010B00009038093080341C280912103803141F4E8
:1010C00078940E94EA0410920903109208033DC22A
:1010D00080912103813109F5789480912303813037
:1010E00089F480912203882F90E09CA38BA38BA18D
:1010F0009CA1880F991F880F991F880F991F0E9424
:101100009D0606C080912303882311F40E949A044F
:10111000109209031092080318C2809121038231B2
:1011200009F5789480912303813089F4809122031A
:10113000882F90E09AA389A389A19AA1880F991F6B
:10114000880F991F880F991F0E94B00606C08091D2
:101150002303882311F40E94A4041092090310921F
:101160000803F3C180912103833191F47894809135
:101170002203882F90E098A38F8F8F8D98A1880FDE
:10118000991F0E94D6061092090310920803DDC130
:1011900080912103843191F4789480912203882FE7
:1011A00090E09E8F8D8F8D8D9E8D880F991F0E9450
:1011B000C3061092090310920803C7C1809121034E
:1011C000853171F47894809122030E940C02882F5B
:1011D00090E09C8F8B8F1092090310920803B5C189
:1011E00080912103863109F048C078948BE00E94F9
:1011F0000C0280932503809125030E9402039093A3
:101200002703809326038091260390912703CC0126
:10121000A0E0B0E0BC01CD010E94890FDC01CB0150
:10122000BC01CD0120E030E04FE753E40E94A10C67
:10123000DC01CB01BC01CD0120E030E048E454E406
:101240000E949B0DDC01CB018F8B988FA98FBA8FE9
:101250006F89788D898D9A8D0E94350FDC01CB01C5
:101260009E8B8D8B8D898C8BE6ECF0E08C89808356
:10127000109209031092080368C1809121038731FD
:10128000B9F4789480912203813029F4809123036A
:101290000E944D0708C080912203823021F4809182
:1012A00023030E949E0710920903109208034DC168
:1012B00080912103883169F4789480912203909180
:1012C0002303692F0E9463041092090310920803FC
:1012D0003CC180912103893191F47894809122035B
:1012E000813011F40E947E0580912203882311F43D
:1012F0000E949605109209031092080326C180915E
:1013000021038A3171F47894809122030E94520261
:10131000882F90E09B8B8A8B109209031092080310
:1013200014C1809121038B3191F478948091220330
:10133000882F90E0998B888B88899989880F991FCD
:101340000E9402071092090310920803FEC08091C8
:1013500021038C3191F4789480912203882F90E0BE
:101360009F878E878E859F85880F991F0E94E9062B
:101370001092090310920803E8C0809121038D3177
:1013800091F4789480912203882F90E09D878C8738
:101390008C859D85880F991F0E9434071092090340
:1013A00010920803D2C0809121038E3191F4789479
:1013B00080912203882F90E09B878A878A859B856E
:1013C000880F991F0E941B071092090310920803AF
:1013D000BCC0809121038F3151F478940E9466053E
:1013E0000E943D051092090310920803AEC080913F
:1013F0002103803251F478940E944E050E942C05FE
:101400001092090310920803A0C080912103813239
:1014100009F093C0789480E00E940C02882F90E03D
:10142000A0E0B0E0BC01CD010E94890FDC01CB013E
:101430008093170390931803A0931903B0931A0392
:1014400080E00E940C02282F30E084E690E0AC019E
:10145000249FC001259F900D349F900D1124AA2731
:1014600097FDA095BA2FBC01CD010E94D70EDC01DB
:10147000CB01BC01CD012DE335ED41EA5DE30E94D6
:10148000A10CDC01CB01BC01CD0123E333E343E339
:101490005FE30E94740CDC01CB0180931D039093E9
:1014A0001E03A0931F03B093200380911D0390910E
:1014B0001E03A0911F03B0912003BC01CD010E9427
:1014C000350FDC01CB019B838A838A819B81CC0110
:1014D000A0E0B0E0BC01CD010E94890FDC01CB018E
:1014E000BC01CD0120E030E04FE753E40E94A10CA5
:1014F000DC01CB01BC01CD0120E030E042E854E446
:101500000E949B0DDC01CB018E839F83A887B98746
:101510006E817F81888599850E94350FDC01CB0122
:101520009D838C838C818983E6ECF0E089818083C4
:10153000109209031092080308C08091080390914B
:1015400009038430910509F4B7CDA496DEBFCDBF61
:10155000CF91DF91FF91EF91BF91AF919F918F91CB
:101560007F916F915F914F913F912F910F900092DA
:101570005B000F900FBE0F901F901895DF93CF93D5
:10158000CDB7DEB70E9413088AE50E944D0786E4B6
:101590000E949E07FFCFEF92FF920F931F937B0154
:1015A0008C0120E030E040E05FE40E94770E882369
:1015B0008CF0C801B70120E030E040E05FE40E9419
:1015C000430C0E94350F9B01AC012050304040403D
:1015D000504806C0C801B7010E94350F9B01AC01FD
:1015E000B901CA011F910F91FF90EF900895A0E0FB
:1015F000B0E0EDEFFAE00C94F711DC012B01FA01F9
:101600009C91923008F439C1EB018881823008F452
:1016100033C1943069F4843009F02FC111969C9144
:1016200011978981981709F428C1A0E0B2E025C17B
:10163000843009F421C18230A9F4923009F01DC12F
:101640009A01AD0188E0EA010990AE01E901099231
:101650009E018150C1F7E201898111969C918923F5
:10166000818308C1923009F407C112962D903C90F5
:101670001397EB018A819B811496AD90BD90CD901C
:10168000DC901797EC80FD800E811F819101281B53
:10169000390BB90137FF04C066277727621B730B2C
:1016A000603271050CF061C0121613066CF537013B
:1016B0004801062E04C096948794779467940A9400
:1016C000D2F721E030E040E050E004C0220F331FA9
:1016D000441F551F6A95D2F721503040404050407A
:1016E0002E213F214023512321153105410551056C
:1016F00021F021E030E040E050E079018A01E62865
:10170000F728082919293CC0232BD1F1260E371EB2
:1017100035014601062E04C0969487947794679409
:101720000A94D2F721E030E040E050E004C0220FFC
:10173000331F441F551F6A95D2F721503040404057
:1017400050402A213B214C215D21211531054105C5
:10175000510521F021E030E040E050E059016A01FC
:10176000A628B728C828D9280BC0821593052CF0C5
:101770001C01AA24BB24650103C0EE24FF248701B9
:1017800011969C91D20111968C91981709F445C03D
:10179000992339F0A80197012A193B094C095D09E1
:1017A00006C0A60195012E193F09400B510B57FDAC
:1017B00008C0118233822282248335834683578373
:1017C0001DC081E081833382228288279927DC0132
:1017D000821B930BA40BB50B84839583A683B783DD
:1017E0000DC0220F331F441F551F248335834683AA
:1017F00057838281938101979383828324813581EA
:1018000046815781DA01C9010197A109B1098F5FAA
:101810009F4FAF4FBF4328F30BC091833382228287
:10182000EA0CFB1C0C1D1D1DE482F5820683178348
:1018300083E08083248135814681578157FF1AC018
:10184000C901AA2797FDA095BA2F81709070A0704A
:10185000B0705695479537952795822B932BA42BDF
:10186000B52B84839583A683B78382819381019668
:1018700093838283DF0101C0D201CD01CDB7DEB7F2
:10188000E2E10C941312A0E2B0E0E9E4FCE00C9475
:10189000031269837A838B839C832D833E834F83DA
:1018A0005887E9E0EE2EF12CEC0EFD1ECE010196DC
:1018B000B7010E9426118E010F5E1F4FCE010596C3
:1018C000B8010E9426118A8991E089278A8BC70175
:1018D000B801AE01475E5F4F0E94F70A0E945110A7
:1018E000A096E6E00C941F12A0E2B0E0EAE7FCE06C
:1018F0000C94031269837A838B839C832D833E83AC
:101900004F835887F9E0EF2EF12CEC0EFD1ECE012F
:101910000196B7010E9426118E010F5E1F4FCE0166
:101920000596B8010E942611C701B801AE01475EB5
:101930005F4F0E94F70A0E945110A096E6E00C94B7
:101940001F12A0E2B0E0E7EAFCE00C94F711698313
:101950007A838B839C832D833E834F835887CE016C
:101960000196BE01675F7F4F0E942611CE0105964A
:10197000BE016F5E7F4F0E9426119985923088F0DC
:1019800089898230C8F0943019F4823051F404C04F
:10199000843029F4923081F480E092E0C6C0923025
:1019A00049F420E09A858A89981321E02A87CE019C
:1019B0000996BBC0823049F420E09A858A89981341
:1019C00021E02A8BCE014196B0C02D843E844F8405
:1019D00058886D887E888F88988CEE24FF24870134
:1019E000AA24BB24650140E050E060E070E0E0E044
:1019F000F0E0C10181709070892BE9F0E60CF71CD2
:101A0000081D191D9A01AB012A0D3B1D4C1D5D1DC2
:101A100080E090E0A0E0B0E0E614F70408051905C6
:101A200020F481E090E0A0E0B0E0BA01A901480F05
:101A3000591F6A1F7B1FAA0CBB1CCC1CDD1C97FE08
:101A400008C081E090E0A0E0B0E0A82AB92ACA2A44
:101A5000DB2A3196E032F10549F0660C771C881CD0
:101A6000991C5694479437942794C3CFFA85EA89F2
:101A70002B893C898B859C85280F391F2E5F3F4F12
:101A800017C0CA0181709070892B61F01695079577
:101A9000F794E79480E090E0A0E0B0E8E82AF92A23
:101AA0000A2B1B2B76956795579547952F5F3F4FD0
:101AB00077FDE7CF0CC0440F551F661F771F17FD3A
:101AC0004160EE0CFF1C001F111F215030404030C0
:101AD00090E0590790E0690790E4790760F32B8F55
:101AE0003C8FDB01CA018F779070A070B07080349A
:101AF0009105A105B10561F447FD0AC0E114F104A7
:101B00000105110529F0405C5F4F6F4F7F4F407812
:101B10001A8EFE1711F081E08A8F4D8F5E8F6F8FC6
:101B200078A383E0898FCE0149960E945110A09638
:101B3000E2E10C941312A8E1B0E0E1EAFDE00C94BC
:101B4000FF1169837A838B839C832D833E834F832C
:101B50005887B9E0EB2EF12CEC0EFD1ECE0101965C
:101B6000B7010E9426118E010F5E1F4FCE01059610
:101B7000B8010E9426112985223008F47EC03989D7
:101B8000323010F4B8017CC08A859A8989278A8707
:101B9000243011F0223031F4231709F06EC060E0D8
:101BA00072E06EC0343039F41D861E861F86188A96
:101BB0001C861B8604C0323021F484E08987B7017B
:101BC0005FC02B853C858B899C89281B390B3C8702
:101BD0002B87ED84FE840F851889AD88BE88CF8859
:101BE000D88CEA14FB040C051D0540F4EE0CFF1C18
:101BF000001F111F215030403C872B8720E030E030
:101C000040E050E080E090E0A0E0B0E460E070E010
:101C1000EA14FB040C051D0540F0282B392B4A2B38
:101C20005B2BEA18FB080C091D09B695A79597953B
:101C30008795EE0CFF1C001F111F6F5F7F4F6F31E8
:101C4000710531F7DA01C9018F779070A070B0701B
:101C500080349105A105B10561F427FD0AC0E114A6
:101C6000F1040105110529F0205C3F4F4F4F5F4FF4
:101C700020782D873E874F87588BBE01675F7F4F47
:101C8000CB010E9451106896EAE00C941B12A8E167
:101C9000B0E0EDE4FEE00C94031269837A838B8359
:101CA0009C832D833E834F83588789E0E82EF12C57
:101CB000EC0EFD1ECE010196B7010E9426118E0189
:101CC0000F5E1F4FCE010596B8010E94261189852F
:101CD000823040F08989823028F0C701B8010E9423
:101CE0009E1101C08FEF6896E6E00C941F12A8E1E8
:101CF000B0E0EDE7FEE00C94031269837A838B83F6
:101D00009C832D833E834F83588789E0E82EF12CF6
:101D1000EC0EFD1ECE010196B7010E9426118E0128
:101D20000F5E1F4FCE010596B8010E9426118985CE
:101D3000823040F08989823028F0C701B8010E94C2
:101D40009E1101C08FEF6896E6E00C941F12A8E187
:101D5000B0E0EDEAFEE00C94031269837A838B8392
:101D60009C832D833E834F83588789E0E82EF12C96
:101D7000EC0EFD1ECE010196B7010E9426118E01C8
:101D80000F5E1F4FCE010596B8010E94261189856E
:101D9000823040F08989823028F0C701B8010E9462
:101DA0009E1101C081E06896E6E00C941F12A8E045
:101DB000B0E0EDEDFEE00C9400129B01AC0183E07D
:101DC0008983DA01C9018827B7FD83959927AA2756
:101DD000BB27B82E211531054105510519F482E0C4
:101DE00089833AC08823A9F0203080E0380780E05A
:101DF000480780E8580729F460E070E080E09FEC35
:101E000030C0EE24FF248701E21AF30A040B150BFD
:101E100002C079018A018EE1C82ED12CDC82CB82EE
:101E2000ED82FE820F831887C801B7010E9402105D
:101E300001971816190684F4082E04C0EE0CFF1C36
:101E4000001F111F0A94D2F7ED82FE820F831887BC
:101E5000C81AD90ADC82CB82BA82CE0101960E94CE
:101E600051102896E9E00C941C12ACE0B0E0EBE3D2
:101E7000FFE00C94071269837A838B839C83CE01E5
:101E80000196BE016B5F7F4F0E9426118D818230CB
:101E900061F1823050F1843021F48E81882351F138
:101EA0002EC02F81388537FD20C06E812F3131053E
:101EB0001CF06623F9F023C08EE190E0821B930BA7
:101EC00029853A854B855C8504C05695479537959D
:101ED00027958A95D2F76623B1F0509540953095B5
:101EE00021953F4F4F4F5F4F0EC020E030E040E064
:101EF00050E009C02FEF3FEF4FEF5FE704C020E055
:101F000030E040E050E8B901CA012C96E2E00C94C0
:101F10002312A8E0B0E0EFE8FFE00C94FF117B0192
:101F20008C01611571058105910519F482E08983A1
:101F300060C083E089838EE1C82ED12CDC82CB8205
:101F4000ED82FE820F831887C801B7010E9402103C
:101F5000FC013197F7FF3BC0222733272E1B3F0B95
:101F600057016801022E04C0D694C794B794A79471
:101F70000A94D2F740E050E060E070E081E090E049
:101F8000A0E0B0E004C0880F991FAA1FBB1F2A95CC
:101F9000D2F70197A109B1098E219F21A023B12376
:101FA0000097A105B10521F041E050E060E070E04C
:101FB0004A295B296C297D294D835E836F8378874D
:101FC0008EE190E08E1B9F0B9C838B8312C0309719
:101FD00081F00E2E04C0EE0CFF1C001F111F0A948E
:101FE000D2F7ED82FE820F831887CE1ADF0ADC82D9
:101FF000CB821A82CE0101960E9451102896EAE007
:102000000C941B12EF92FF920F931F937B018C0194
:1020100080E0E81680E0F80681E0080780E0180715
:1020200088F48FEFE816F1040105110531F028F06E
:1020300088E090E0A0E0B0E017C080E090E0A0E091
:10204000B0E012C080E0E81680E0F80680E0080703
:1020500081E0180728F088E190E0A0E0B0E004C03B
:1020600080E190E0A0E0B0E020E230E040E050E02D
:10207000281B390B4A0B5B0B04C016950795F79488
:10208000E7948A95D2F7F701E85FFD4F8081281B1E
:10209000310941095109C9011F910F91FF90EF903A
:1020A0000895DF92EF92FF920F931F93FC01E4805B
:1020B000F58006811781D1808081823048F480E0EC
:1020C00090E0A0E1B0E0E82AF92A0A2B1B2BA5C07A
:1020D000843009F49FC0823021F4EE24FF2487016C
:1020E00005C0E114F1040105110519F4E0E0F0E088
:1020F00096C0628173819FEF623879070CF05BC0F4
:1021000022E83FEF261B370B2A3131052CF020E067
:1021100030E040E050E02AC0B801A701022E04C020
:1021200076956795579547950A94D2F781E090E0A8
:10213000A0E0B0E004C0880F991FAA1FBB1F2A951A
:10214000D2F70197A109B1098E219F21A023B123C4
:102150000097A105B10521F081E090E0A0E0B0E09A
:102160009A01AB01282B392B4A2B5B2BDA01C901D1
:102170008F779070A070B07080349105A105B10583
:1021800039F427FF09C0205C3F4F4F4F5F4F04C019
:10219000215C3F4F4F4F5F4FE0E0F0E02030A0E088
:1021A0003A07A0E04A07A0E45A0710F0E1E0F0E0A7
:1021B00079018A0127C06038710564F5FB01E15897
:1021C000FF4FD801C7018F779070A070B070803436
:1021D0009105A105B10539F4E7FE0DC080E490E05A
:1021E000A0E0B0E004C08FE390E0A0E0B0E0E80E33
:1021F000F91E0A1F1B1F17FF05C016950795F794B8
:10220000E794319687E016950795F794E7948A95B9
:10221000D1F705C0EE24FF248701EFEFF0E06E2F29
:10222000679566276795902F9F77D794DD24D7947D
:102230008E2F8695492F462B582F5D29B701CA014D
:102240001F910F91FF90EF90DF900895FC01DB014B
:10225000408151812281622F6F7770E0221F2227F7
:10226000221F9381892F880F822B282F30E0991FFE
:102270009927991F11969C93119721153105A9F55E
:10228000411551056105710511F482E037C082E8FE
:102290009FEF13969C938E9312979A01AB0167E080
:1022A000220F331F441F551F6A95D1F783E08C938B
:1022B0000DC0220F331F441F551F12968D919C9104
:1022C0001397019713969C938E931297203080E07A
:1022D000380780E0480780E4580758F314962D9398
:1022E0003D934D935C93179708952F3F310579F4F3
:1022F000411551056105710519F484E08C93089529
:1023000064FF03C081E08C9312C01C9210C02F5751
:10231000304013963C932E93129783E08C9387E082
:10232000440F551F661F771F8A95D1F77064149666
:102330004D935D936D937C93179708951F93DC01E4
:10234000FB019C91923008F447C08081823008F4F0
:1023500043C0943051F411961C91843099F58181D9
:10236000682F70E0611B71093FC0843021F092300A
:1023700031F48230B9F18181882389F12DC0119621
:102380001C9111978230F1F081811817D9F41296BF
:102390002D913C911397828193818217930794F03A
:1023A00028173907BCF014968D919D910D90BC9122
:1023B000A02D2481358146815781281739074A0786
:1023C0005B0718F4112341F00AC082179307A40792
:1023D000B50740F4112319F061E070E005C06FEF1C
:1023E0007FEF02C060E070E0CB011F9108952F9253
:1023F0003F924F925F926F927F928F929F92AF9295
:10240000BF92CF92DF92EF92FF920F931F93CF93E1
:10241000DF93CDB7DEB7CA1BDB0B0FB6F894DEBF78
:102420000FBECDBF19942A88398848885F846E848E
:102430007D848C849B84AA84B984C884DF80EE80E8
:10244000FD800C811B81AA81B981CE0FD11D0FB6F1
:10245000F894DEBF0FBECDBFED010895FA01EE0F77
:10246000FF1F30962105310599F16115710561F461
:102470008038BFE39B0749F168949038810561F08B
:102480008038BFEF9B0741F0992342F5FF3FE105FC
:102490003105210511F1E8940894E795D901AA23A3
:1024A00029F4AB2FBE2FF85FD0F310C0FF5F70F49C
:1024B000A695E0F7F73950F019F0FF3A38F49F7716
:1024C0009F930CD00F9007FC905808953EF049C0A0
:1024D00060E070E080E89FE308954FE79F775F93A7
:1024E0004F933F932F93D0D02F913F914F915F9176
:1024F00028DA05C019F40EF02EC07DC032C061D0BC
:10250000C8F39638C0F707F80F92E8942BE33AEA3D
:1025100048EB5FE738D10F920F920F924DB75EB73D
:102520000F92F2D0E4EEF0E01FD04F915F91EF9167
:10253000FF91E595EE1FFF1F49F0FE57E068442725
:10254000EE0F441FFA95E1F74195550B64D00F90BB
:1025500007FE58C0089597F99F6780E870E060E033
:1025600008959FEF80EC0895DF93CF931F930F930F
:10257000FF92EF92DF927B018C01689405C0DA2E06
:10258000EF01FFD0FE01E894A59125913591459189
:102590005591AEF3EF0159D1FE019701A801DA94EC
:1025A00079F7DF90EF90FF900F911F91CF91DF911E
:1025B000089557FD9058440F551F59F05F3F71F033
:1025C0004795880F97FB991F61F09F3F79F087959A
:1025D0000895121613061406551FF2CF4695F1DF23
:1025E00008C0161617061806991FF1CF86957105B3
:1025F000610508940895E894BB2766277727CB01E7
:1026000097F908959B01AC0160E070E080E89FE3DA
:1026100092CAA1CF6DC1D5DFE8F39923D9F3940F06
:10262000511DBBF39150504094F059F0882332F083
:10263000660F771F881F91505040C1F79E3F51058C
:1026400044F7880F911D9695879597F908955F3FF8
:10265000ACF0983E9CF0BB27869577956795B7952B
:1026600008F4B1609395C1F7BB0F58F711F460FF00
:10267000E8CF6F5F7F4F8F4F9F4FE3CFBDCF0EF0FF
:1026800037C16FCF689467CF9CDFC8F39923D1F32C
:10269000C6F3DF93CF931F930F93FF92C92FDD27CC
:1026A00088232AF02197660F771F881FDAF720E02A
:1026B00030E040E85FEB9FE3883920F0803E30F067
:1026C00021968F7711D9ECE0F1E003C00DD9E9E351
:1026D000F1E04ADF8B01BE01EC01FB2E6F5771095F
:1026E0007595771F880B990B62DB28E132E741E390
:1026F0005FE347D0AF2D9801AE01FF900F911F917E
:10270000CF91DF91A2D010C1FA01DC01AA0FBB1F4B
:102710009B01AC01BF5728F4222733274427507868
:102720001FC0B75188F4AB2F0024469537952795E5
:10273000011CA395D2F3002069F0220F331F441F20
:10274000B395DAF30DD09FC861307105A0E88A0710
:10275000B94630F49B01AC0166277727882790782B
:10276000309621F020833183428353830895CED065
:1027700028F0D3D018F0952309F0EDCEF2CE112435
:102780003BCF17DFA0F3959FD1F3950F50E0551F76
:10279000629FF001729FBB27F00DB11D639FAA27B6
:1027A000F00DB11DAA1F649F6627B00DA11D661F05
:1027B000829F2227B00DA11D621F739FB00DA11D26
:1027C000621F839FA00D611D221F749F3327A00DE0
:1027D000611D231F849F600D211D822F762F6A2F7C
:1027E00011249F5750408AF0E1F088234AF0EE0F01
:1027F000FF1FBB1F661F771F881F91505040A9F70E
:102800009E3F510570F0A7CEF7CE5F3FECF3983EA8
:10281000DCF3869577956795B795F795E7959F5F74
:10282000C1F7FE2B880F911D9695879597F908950E
:102830006DD030F072D020F031F49F3F11F41EF4CF
:1028400090CE0EF4E095E7FB86CEE92FB2DE80F362
:10285000BA17620773078407950718F071F49EF59D
:10286000CACE0EF4E0950B2EBA2FA02D0B01B901A4
:1028700090010C01CA01A0011124FF27591B99F0F6
:10288000593F50F4503E68F11A16F040A22F232F02
:10289000342F4427585FF3CF469537952795A79552
:1028A000F0405395C9F77EF41F16BA0B620B730BF9
:1028B000840BBAF09150A1F0FF0FBB1F661F771F6A
:1028C000881FC2F70EC0BA0F621F731F841F48F41F
:1028D000879577956795B795F7959E3F08F0B3CFA5
:1028E0009395880F08F09927EE0F9795879508958F
:1028F0009F3F31F0915020F4879577956795B79574
:10290000880F911D9695879597F9089500240A944C
:102910001616170618060906089500240A941216BA
:102920001306140605060895092E0394000C11F4ED
:10293000882352F0BB0F40F4BF2B11F460FF04C09A
:0E2940006F5F7F4F8F4F9F4F0895F894FFCF2A
:10294E000000000000000000000102020303030368
:10295E000404040404040404050505050505050521
:10296E000505050505050505060606060606060601
:10297E0006060606060606060606060606060606E9
:10298E0006060606060606060707070707070707D1
:10299E0007070707070707070707070707070707B9
:1029AE0007070707070707070707070707070707A9
:1029BE000707070707070707070707070707070799
:1029CE000707070707070707080808080808080881
:1029DE000808080808080808080808080808080869
:1029EE000808080808080808080808080808080859
:1029FE000808080808080808080808080808080849
:102A0E000808080808080808080808080808080838
:102A1E000808080808080808080808080808080828
:102A2E000808080808080808080808080808080818
:102A3E000808080808080808080808080808080808
:082A4E00080808080808080840
:00000001FF
